{
  "_format": "hh-sol-artifact-1",
  "contractName": "InvoiceManager",
  "sourceName": "contracts/InvoiceManager.sol",
  "abi": [
    {
      "anonymous": false,
      "inputs": [
        {
          "indexed": true,
          "internalType": "uint256",
          "name": "id",
          "type": "uint256"
        },
        {
          "indexed": true,
          "internalType": "address",
          "name": "owner",
          "type": "address"
        },
        {
          "indexed": false,
          "internalType": "string",
          "name": "companyName",
          "type": "string"
        },
        {
          "indexed": false,
          "internalType": "string",
          "name": "invoiceNumber",
          "type": "string"
        },
        {
          "indexed": false,
          "internalType": "uint256",
          "name": "amount",
          "type": "uint256"
        },
        {
          "indexed": false,
          "internalType": "uint256",
          "name": "timestamp",
          "type": "uint256"
        }
      ],
      "name": "InvoiceAdded",
      "type": "event"
    },
    {
      "anonymous": false,
      "inputs": [
        {
          "indexed": true,
          "internalType": "uint256",
          "name": "id",
          "type": "uint256"
        },
        {
          "indexed": true,
          "internalType": "address",
          "name": "owner",
          "type": "address"
        }
      ],
      "name": "InvoiceDeactivated",
      "type": "event"
    },
    {
      "anonymous": false,
      "inputs": [
        {
          "indexed": true,
          "internalType": "uint256",
          "name": "id",
          "type": "uint256"
        },
        {
          "indexed": true,
          "internalType": "address",
          "name": "owner",
          "type": "address"
        }
      ],
      "name": "InvoiceUpdated",
      "type": "event"
    },
    {
      "inputs": [
        {
          "internalType": "string",
          "name": "_companyName",
          "type": "string"
        },
        {
          "internalType": "string",
          "name": "_invoiceNumber",
          "type": "string"
        },
        {
          "internalType": "uint256",
          "name": "_amount",
          "type": "uint256"
        },
        {
          "internalType": "uint256",
          "name": "_date",
          "type": "uint256"
        },
        {
          "internalType": "string",
          "name": "_description",
          "type": "string"
        },
        {
          "internalType": "string",
          "name": "_ipfsHash",
          "type": "string"
        },
        {
          "internalType": "string",
          "name": "_category",
          "type": "string"
        }
      ],
      "name": "addInvoice",
      "outputs": [
        {
          "internalType": "uint256",
          "name": "",
          "type": "uint256"
        }
      ],
      "stateMutability": "nonpayable",
      "type": "function"
    },
    {
      "inputs": [
        {
          "internalType": "uint256",
          "name": "",
          "type": "uint256"
        }
      ],
      "name": "allInvoiceIds",
      "outputs": [
        {
          "internalType": "uint256",
          "name": "",
          "type": "uint256"
        }
      ],
      "stateMutability": "view",
      "type": "function"
    },
    {
      "inputs": [
        {
          "internalType": "uint256",
          "name": "_invoiceId",
          "type": "uint256"
        }
      ],
      "name": "deactivateInvoice",
      "outputs": [],
      "stateMutability": "nonpayable",
      "type": "function"
    },
    {
      "inputs": [],
      "name": "getActiveInvoicesCount",
      "outputs": [
        {
          "internalType": "uint256",
          "name": "",
          "type": "uint256"
        }
      ],
      "stateMutability": "view",
      "type": "function"
    },
    {
      "inputs": [],
      "name": "getAllInvoices",
      "outputs": [
        {
          "components": [
            {
              "internalType": "uint256",
              "name": "id",
              "type": "uint256"
            },
            {
              "internalType": "address",
              "name": "owner",
              "type": "address"
            },
            {
              "internalType": "string",
              "name": "companyName",
              "type": "string"
            },
            {
              "internalType": "string",
              "name": "invoiceNumber",
              "type": "string"
            },
            {
              "internalType": "uint256",
              "name": "amount",
              "type": "uint256"
            },
            {
              "internalType": "uint256",
              "name": "date",
              "type": "uint256"
            },
            {
              "internalType": "string",
              "name": "description",
              "type": "string"
            },
            {
              "internalType": "string",
              "name": "ipfsHash",
              "type": "string"
            },
            {
              "internalType": "string",
              "name": "category",
              "type": "string"
            },
            {
              "internalType": "bool",
              "name": "isActive",
              "type": "bool"
            },
            {
              "internalType": "uint256",
              "name": "createdAt",
              "type": "uint256"
            }
          ],
          "internalType": "struct InvoiceManager.Invoice[]",
          "name": "",
          "type": "tuple[]"
        }
      ],
      "stateMutability": "view",
      "type": "function"
    },
    {
      "inputs": [
        {
          "internalType": "uint256",
          "name": "_invoiceId",
          "type": "uint256"
        }
      ],
      "name": "getInvoice",
      "outputs": [
        {
          "components": [
            {
              "internalType": "uint256",
              "name": "id",
              "type": "uint256"
            },
            {
              "internalType": "address",
              "name": "owner",
              "type": "address"
            },
            {
              "internalType": "string",
              "name": "companyName",
              "type": "string"
            },
            {
              "internalType": "string",
              "name": "invoiceNumber",
              "type": "string"
            },
            {
              "internalType": "uint256",
              "name": "amount",
              "type": "uint256"
            },
            {
              "internalType": "uint256",
              "name": "date",
              "type": "uint256"
            },
            {
              "internalType": "string",
              "name": "description",
              "type": "string"
            },
            {
              "internalType": "string",
              "name": "ipfsHash",
              "type": "string"
            },
            {
              "internalType": "string",
              "name": "category",
              "type": "string"
            },
            {
              "internalType": "bool",
              "name": "isActive",
              "type": "bool"
            },
            {
              "internalType": "uint256",
              "name": "createdAt",
              "type": "uint256"
            }
          ],
          "internalType": "struct InvoiceManager.Invoice",
          "name": "",
          "type": "tuple"
        }
      ],
      "stateMutability": "view",
      "type": "function"
    },
    {
      "inputs": [],
      "name": "getTotalInvoices",
      "outputs": [
        {
          "internalType": "uint256",
          "name": "",
          "type": "uint256"
        }
      ],
      "stateMutability": "view",
      "type": "function"
    },
    {
      "inputs": [
        {
          "internalType": "address",
          "name": "_user",
          "type": "address"
        }
      ],
      "name": "getUserInvoices",
      "outputs": [
        {
          "components": [
            {
              "internalType": "uint256",
              "name": "id",
              "type": "uint256"
            },
            {
              "internalType": "address",
              "name": "owner",
              "type": "address"
            },
            {
              "internalType": "string",
              "name": "companyName",
              "type": "string"
            },
            {
              "internalType": "string",
              "name": "invoiceNumber",
              "type": "string"
            },
            {
              "internalType": "uint256",
              "name": "amount",
              "type": "uint256"
            },
            {
              "internalType": "uint256",
              "name": "date",
              "type": "uint256"
            },
            {
              "internalType": "string",
              "name": "description",
              "type": "string"
            },
            {
              "internalType": "string",
              "name": "ipfsHash",
              "type": "string"
            },
            {
              "internalType": "string",
              "name": "category",
              "type": "string"
            },
            {
              "internalType": "bool",
              "name": "isActive",
              "type": "bool"
            },
            {
              "internalType": "uint256",
              "name": "createdAt",
              "type": "uint256"
            }
          ],
          "internalType": "struct InvoiceManager.Invoice[]",
          "name": "",
          "type": "tuple[]"
        }
      ],
      "stateMutability": "view",
      "type": "function"
    },
    {
      "inputs": [
        {
          "internalType": "uint256",
          "name": "",
          "type": "uint256"
        }
      ],
      "name": "invoices",
      "outputs": [
        {
          "internalType": "uint256",
          "name": "id",
          "type": "uint256"
        },
        {
          "internalType": "address",
          "name": "owner",
          "type": "address"
        },
        {
          "internalType": "string",
          "name": "companyName",
          "type": "string"
        },
        {
          "internalType": "string",
          "name": "invoiceNumber",
          "type": "string"
        },
        {
          "internalType": "uint256",
          "name": "amount",
          "type": "uint256"
        },
        {
          "internalType": "uint256",
          "name": "date",
          "type": "uint256"
        },
        {
          "internalType": "string",
          "name": "description",
          "type": "string"
        },
        {
          "internalType": "string",
          "name": "ipfsHash",
          "type": "string"
        },
        {
          "internalType": "string",
          "name": "category",
          "type": "string"
        },
        {
          "internalType": "bool",
          "name": "isActive",
          "type": "bool"
        },
        {
          "internalType": "uint256",
          "name": "createdAt",
          "type": "uint256"
        }
      ],
      "stateMutability": "view",
      "type": "function"
    },
    {
      "inputs": [
        {
          "internalType": "string",
          "name": "_companyName",
          "type": "string"
        }
      ],
      "name": "searchInvoicesByCompany",
      "outputs": [
        {
          "components": [
            {
              "internalType": "uint256",
              "name": "id",
              "type": "uint256"
            },
            {
              "internalType": "address",
              "name": "owner",
              "type": "address"
            },
            {
              "internalType": "string",
              "name": "companyName",
              "type": "string"
            },
            {
              "internalType": "string",
              "name": "invoiceNumber",
              "type": "string"
            },
            {
              "internalType": "uint256",
              "name": "amount",
              "type": "uint256"
            },
            {
              "internalType": "uint256",
              "name": "date",
              "type": "uint256"
            },
            {
              "internalType": "string",
              "name": "description",
              "type": "string"
            },
            {
              "internalType": "string",
              "name": "ipfsHash",
              "type": "string"
            },
            {
              "internalType": "string",
              "name": "category",
              "type": "string"
            },
            {
              "internalType": "bool",
              "name": "isActive",
              "type": "bool"
            },
            {
              "internalType": "uint256",
              "name": "createdAt",
              "type": "uint256"
            }
          ],
          "internalType": "struct InvoiceManager.Invoice[]",
          "name": "",
          "type": "tuple[]"
        }
      ],
      "stateMutability": "view",
      "type": "function"
    },
    {
      "inputs": [
        {
          "internalType": "uint256",
          "name": "_invoiceId",
          "type": "uint256"
        },
        {
          "internalType": "string",
          "name": "_description",
          "type": "string"
        },
        {
          "internalType": "string",
          "name": "_category",
          "type": "string"
        }
      ],
      "name": "updateInvoice",
      "outputs": [],
      "stateMutability": "nonpayable",
      "type": "function"
    },
    {
      "inputs": [
        {
          "internalType": "address",
          "name": "",
          "type": "address"
        },
        {
          "internalType": "uint256",
          "name": "",
          "type": "uint256"
        }
      ],
      "name": "userInvoices",
      "outputs": [
        {
          "internalType": "uint256",
          "name": "",
          "type": "uint256"
        }
      ],
      "stateMutability": "view",
      "type": "function"
    }
  ],
  "bytecode": "0x608060405234801561001057600080fd5b506125cc806100206000396000f3fe608060405234801561001057600080fd5b50600436106100b45760003560e01c80638f72f7ff116100715780638f72f7ff14610164578063c34a5fa714610179578063d716e9ca1461018c578063df2b7a2814610194578063e739d90d1461019c578063fca7d4b5146101af57600080fd5b80630ad6b0a5146100b95780631a314f0b146100df57806324d3b3e2146100ff5780633a23cc0a146101125780634e6d140514610132578063570bdad61461015c575b600080fd5b6100cc6100c7366004611e32565b6101c2565b6040519081526020015b60405180910390f35b6100f26100ed366004611eff565b6101f3565b6040516100d69190612068565b6100f261010d3660046120ca565b61075b565b6101256101203660046120ec565b610c5b565b6040516100d69190612105565b6101456101403660046120ec565b61100e565b6040516100d69b9a99989796959493929190612118565b6100f2611318565b6101776101723660046120ec565b6117d6565b005b6101776101873660046121bd565b6118de565b6000546100cc565b6100cc611a0a565b6100cc6101aa3660046120ec565b611a77565b6100cc6101bd36600461222a565b611a98565b600260205281600052604060002081815481106101de57600080fd5b90600052602060002001600091509150505481565b606060008251116102435760405162461bcd60e51b815260206004820152601560248201527410dbdb5c185b9e481b985b59481c995c5d5a5c9959605a1b60448201526064015b60405180910390fd5b6000805b6003548110156102ed576000600382815481106102665761026661230f565b6000918252602080832090910154808352600190915260409091206009015490915060ff1680156102c757508480519060200120600160008381526020019081526020016000206002016040516102bd9190612359565b6040518091039020145b156102da57826102d6816123cf565b9350505b50806102e5816123cf565b915050610247565b5060008167ffffffffffffffff81111561030957610309611e5c565b60405190808252806020026020018201604052801561034257816020015b61032f611db1565b8152602001906001900390816103275790505b5090506000805b600354811015610751576000600382815481106103685761036861230f565b6000918252602080832090910154808352600190915260409091206009015490915060ff1680156103c957508680519060200120600160008381526020019081526020016000206002016040516103bf9190612359565b6040518091039020145b1561073e5760008181526001602081815260409283902083516101608101855281548152928101546001600160a01b031691830191909152600281018054929391929184019161041890612325565b80601f016020809104026020016040519081016040528092919081815260200182805461044490612325565b80156104915780601f1061046657610100808354040283529160200191610491565b820191906000526020600020905b81548152906001019060200180831161047457829003601f168201915b505050505081526020016003820180546104aa90612325565b80601f01602080910402602001604051908101604052809291908181526020018280546104d690612325565b80156105235780601f106104f857610100808354040283529160200191610523565b820191906000526020600020905b81548152906001019060200180831161050657829003601f168201915b50505050508152602001600482015481526020016005820154815260200160068201805461055090612325565b80601f016020809104026020016040519081016040528092919081815260200182805461057c90612325565b80156105c95780601f1061059e576101008083540402835291602001916105c9565b820191906000526020600020905b8154815290600101906020018083116105ac57829003601f168201915b505050505081526020016007820180546105e290612325565b80601f016020809104026020016040519081016040528092919081815260200182805461060e90612325565b801561065b5780601f106106305761010080835404028352916020019161065b565b820191906000526020600020905b81548152906001019060200180831161063e57829003601f168201915b5050505050815260200160088201805461067490612325565b80601f01602080910402602001604051908101604052809291908181526020018280546106a090612325565b80156106ed5780601f106106c2576101008083540402835291602001916106ed565b820191906000526020600020905b8154815290600101906020018083116106d057829003601f168201915b5050509183525050600982015460ff1615156020820152600a9091015460409091015284518590859081106107245761072461230f565b6020026020010181905250828061073a906123cf565b9350505b5080610749816123cf565b915050610349565b5090949350505050565b6001600160a01b03811660009081526002602090815260408083208054825181850281018501909352808352606094938301828280156107ba57602002820191906000526020600020905b8154815260200190600101908083116107a6575b505050505090506000805b825181101561082a57600160008483815181106107e4576107e461230f565b60209081029190910181015182528101919091526040016000206009015460ff16156108185781610814816123cf565b9250505b80610822816123cf565b9150506107c5565b5060008167ffffffffffffffff81111561084657610846611e5c565b60405190808252806020026020018201604052801561087f57816020015b61086c611db1565b8152602001906001900390816108645790505b5090506000805b8451811015610c505760008582815181106108a3576108a361230f565b6020908102919091018101516000818152600190925260409091206009015490915060ff1615610c3d5760008181526001602081815260409283902083516101608101855281548152928101546001600160a01b031691830191909152600281018054929391929184019161091790612325565b80601f016020809104026020016040519081016040528092919081815260200182805461094390612325565b80156109905780601f1061096557610100808354040283529160200191610990565b820191906000526020600020905b81548152906001019060200180831161097357829003601f168201915b505050505081526020016003820180546109a990612325565b80601f01602080910402602001604051908101604052809291908181526020018280546109d590612325565b8015610a225780601f106109f757610100808354040283529160200191610a22565b820191906000526020600020905b815481529060010190602001808311610a0557829003601f168201915b505050505081526020016004820154815260200160058201548152602001600682018054610a4f90612325565b80601f0160208091040260200160405190810160405280929190818152602001828054610a7b90612325565b8015610ac85780601f10610a9d57610100808354040283529160200191610ac8565b820191906000526020600020905b815481529060010190602001808311610aab57829003601f168201915b50505050508152602001600782018054610ae190612325565b80601f0160208091040260200160405190810160405280929190818152602001828054610b0d90612325565b8015610b5a5780601f10610b2f57610100808354040283529160200191610b5a565b820191906000526020600020905b815481529060010190602001808311610b3d57829003601f168201915b50505050508152602001600882018054610b7390612325565b80601f0160208091040260200160405190810160405280929190818152602001828054610b9f90612325565b8015610bec5780601f10610bc157610100808354040283529160200191610bec565b820191906000526020600020905b815481529060010190602001808311610bcf57829003601f168201915b5050509183525050600982015460ff1615156020820152600a909101546040909101528451859085908110610c2357610c2361230f565b60200260200101819052508280610c39906123cf565b9350505b5080610c48816123cf565b915050610886565b509095945050505050565b610c63611db1565b81600081118015610c7657506000548111155b610c925760405162461bcd60e51b815260040161023a906123f6565b60008181526001602052604090206009015460ff16610cc35760405162461bcd60e51b815260040161023a90612422565b60008381526001602081815260409283902083516101608101855281548152928101546001600160a01b0316918301919091526002810180549293919291840191610d0d90612325565b80601f0160208091040260200160405190810160405280929190818152602001828054610d3990612325565b8015610d865780601f10610d5b57610100808354040283529160200191610d86565b820191906000526020600020905b815481529060010190602001808311610d6957829003601f168201915b50505050508152602001600382018054610d9f90612325565b80601f0160208091040260200160405190810160405280929190818152602001828054610dcb90612325565b8015610e185780601f10610ded57610100808354040283529160200191610e18565b820191906000526020600020905b815481529060010190602001808311610dfb57829003601f168201915b505050505081526020016004820154815260200160058201548152602001600682018054610e4590612325565b80601f0160208091040260200160405190810160405280929190818152602001828054610e7190612325565b8015610ebe5780601f10610e9357610100808354040283529160200191610ebe565b820191906000526020600020905b815481529060010190602001808311610ea157829003601f168201915b50505050508152602001600782018054610ed790612325565b80601f0160208091040260200160405190810160405280929190818152602001828054610f0390612325565b8015610f505780601f10610f2557610100808354040283529160200191610f50565b820191906000526020600020905b815481529060010190602001808311610f3357829003601f168201915b50505050508152602001600882018054610f6990612325565b80601f0160208091040260200160405190810160405280929190818152602001828054610f9590612325565b8015610fe25780601f10610fb757610100808354040283529160200191610fe2565b820191906000526020600020905b815481529060010190602001808311610fc557829003601f168201915b5050509183525050600982015460ff1615156020820152600a9091015460409091015291505b50919050565b60016020819052600091825260409091208054918101546002820180546001600160a01b03909216929161104190612325565b80601f016020809104026020016040519081016040528092919081815260200182805461106d90612325565b80156110ba5780601f1061108f576101008083540402835291602001916110ba565b820191906000526020600020905b81548152906001019060200180831161109d57829003601f168201915b5050505050908060030180546110cf90612325565b80601f01602080910402602001604051908101604052809291908181526020018280546110fb90612325565b80156111485780601f1061111d57610100808354040283529160200191611148565b820191906000526020600020905b81548152906001019060200180831161112b57829003601f168201915b50505050509080600401549080600501549080600601805461116990612325565b80601f016020809104026020016040519081016040528092919081815260200182805461119590612325565b80156111e25780601f106111b7576101008083540402835291602001916111e2565b820191906000526020600020905b8154815290600101906020018083116111c557829003601f168201915b5050505050908060070180546111f790612325565b80601f016020809104026020016040519081016040528092919081815260200182805461122390612325565b80156112705780601f1061124557610100808354040283529160200191611270565b820191906000526020600020905b81548152906001019060200180831161125357829003601f168201915b50505050509080600801805461128590612325565b80601f01602080910402602001604051908101604052809291908181526020018280546112b190612325565b80156112fe5780601f106112d3576101008083540402835291602001916112fe565b820191906000526020600020905b8154815290600101906020018083116112e157829003601f168201915b505050506009830154600a90930154919260ff169190508b565b60606000805b60035481101561138657600160006003838154811061133f5761133f61230f565b6000918252602080832090910154835282019290925260400190206009015460ff16156113745781611370816123cf565b9250505b8061137e816123cf565b91505061131e565b5060008167ffffffffffffffff8111156113a2576113a2611e5c565b6040519080825280602002602001820160405280156113db57816020015b6113c8611db1565b8152602001906001900390816113c05790505b5090506000805b6003548110156117cd5760016000600383815481106114035761140361230f565b6000918252602080832090910154835282019290925260400190206009015460ff16156117bb5760016000600383815481106114415761144161230f565b6000918252602080832090910154835282810193909352604091820190208151610160810183528154815260018201546001600160a01b031693810193909352600281018054919284019161149590612325565b80601f01602080910402602001604051908101604052809291908181526020018280546114c190612325565b801561150e5780601f106114e35761010080835404028352916020019161150e565b820191906000526020600020905b8154815290600101906020018083116114f157829003601f168201915b5050505050815260200160038201805461152790612325565b80601f016020809104026020016040519081016040528092919081815260200182805461155390612325565b80156115a05780601f10611575576101008083540402835291602001916115a0565b820191906000526020600020905b81548152906001019060200180831161158357829003601f168201915b5050505050815260200160048201548152602001600582015481526020016006820180546115cd90612325565b80601f01602080910402602001604051908101604052809291908181526020018280546115f990612325565b80156116465780601f1061161b57610100808354040283529160200191611646565b820191906000526020600020905b81548152906001019060200180831161162957829003601f168201915b5050505050815260200160078201805461165f90612325565b80601f016020809104026020016040519081016040528092919081815260200182805461168b90612325565b80156116d85780601f106116ad576101008083540402835291602001916116d8565b820191906000526020600020905b8154815290600101906020018083116116bb57829003601f168201915b505050505081526020016008820180546116f190612325565b80601f016020809104026020016040519081016040528092919081815260200182805461171d90612325565b801561176a5780601f1061173f5761010080835404028352916020019161176a565b820191906000526020600020905b81548152906001019060200180831161174d57829003601f168201915b5050509183525050600982015460ff1615156020820152600a9091015460409091015283518490849081106117a1576117a161230f565b602002602001018190525081806117b7906123cf565b9250505b806117c5816123cf565b9150506113e2565b50909392505050565b806000811180156117e957506000548111155b6118055760405162461bcd60e51b815260040161023a906123f6565b60008181526001602052604090206009015460ff166118365760405162461bcd60e51b815260040161023a90612422565b6000828152600160208190526040909120015482906001600160a01b031633146118965760405162461bcd60e51b81526020600482015260116024820152702737ba1034b73b37b4b1b29037bbb732b960791b604482015260640161023a565b600083815260016020526040808220600901805460ff1916905551339185917f5dbf128410fd58053d87f6e3afd12b331ed24a6997157f755b063be81d8697249190a3505050565b826000811180156118f157506000548111155b61190d5760405162461bcd60e51b815260040161023a906123f6565b60008181526001602052604090206009015460ff1661193e5760405162461bcd60e51b815260040161023a90612422565b6000848152600160208190526040909120015484906001600160a01b0316331461199e5760405162461bcd60e51b81526020600482015260116024820152702737ba1034b73b37b4b1b29037bbb732b960791b604482015260640161023a565b60008581526001602052604090206006016119b9858261249d565b5060008581526001602052604090206008016119d5848261249d565b50604051339086907f66bdab40d2cead33aeb48c57da65011ae2b84d294c870ee9229a19f917f34fc890600090a35050505050565b600080805b600354811015611008576001600060038381548110611a3057611a3061230f565b6000918252602080832090910154835282019290925260400190206009015460ff1615611a655781611a61816123cf565b9250505b80611a6f816123cf565b915050611a0f565b60038181548110611a8757600080fd5b600091825260209091200154905081565b600080885111611ae25760405162461bcd60e51b815260206004820152601560248201527410dbdb5c185b9e481b985b59481c995c5d5a5c9959605a1b604482015260640161023a565b6000875111611b335760405162461bcd60e51b815260206004820152601760248201527f496e766f696365206e756d626572207265717569726564000000000000000000604482015260640161023a565b60008611611b835760405162461bcd60e51b815260206004820152601d60248201527f416d6f756e74206d7573742062652067726561746572207468616e2030000000604482015260640161023a565b60008511611bc35760405162461bcd60e51b815260206004820152600d60248201526c11185d19481c995c5d5a5c9959609a1b604482015260640161023a565b600080549080611bd2836123cf565b90915550506000805460408051610160810182528281523360208083019182528284018e8152606084018e9052608084018d905260a084018c905260c084018b905260e084018a905261010084018990526001610120850181905242610140860152868852918290529390952082518155905194810180546001600160a01b0319166001600160a01b03909616959095179094559051919290918291906002820190611c7e908261249d565b5060608201516003820190611c93908261249d565b506080820151600482015560a0820151600582015560c08201516006820190611cbc908261249d565b5060e08201516007820190611cd1908261249d565b506101008201516008820190611ce7908261249d565b5061012082015160098201805460ff191691151591909117905561014090910151600a909101553360008181526002602090815260408083208054600181810183559185529284209092018690556003805492830181559092527fc2575a0e9e593c00f959f8c92f12db2869c3395a3b0502d05e2516446f71f85b018490555183907f8d3b230f4e20205c3ba9d4b4de315a4397c40d89a15fe2ad787c639c338a590a90611d9c908e908e908e90429061255d565b60405180910390a35098975050505050505050565b6040518061016001604052806000815260200160006001600160a01b0316815260200160608152602001606081526020016000815260200160008152602001606081526020016060815260200160608152602001600015158152602001600081525090565b80356001600160a01b0381168114611e2d57600080fd5b919050565b60008060408385031215611e4557600080fd5b611e4e83611e16565b946020939093013593505050565b634e487b7160e01b600052604160045260246000fd5b600082601f830112611e8357600080fd5b813567ffffffffffffffff80821115611e9e57611e9e611e5c565b604051601f8301601f19908116603f01168101908282118183101715611ec657611ec6611e5c565b81604052838152866020858801011115611edf57600080fd5b836020870160208301376000602085830101528094505050505092915050565b600060208284031215611f1157600080fd5b813567ffffffffffffffff811115611f2857600080fd5b611f3484828501611e72565b949350505050565b6000815180845260005b81811015611f6257602081850181015186830182015201611f46565b506000602082860101526020601f19601f83011685010191505092915050565b6000610160825184526020830151611fa560208601826001600160a01b03169052565b506040830151816040860152611fbd82860182611f3c565b91505060608301518482036060860152611fd78282611f3c565b9150506080830151608085015260a083015160a085015260c083015184820360c08601526120058282611f3c565b91505060e083015184820360e086015261201f8282611f3c565b915050610100808401518583038287015261203a8382611f3c565b92505050610120808401516120528287018215159052565b5050610140928301519390920192909252919050565b6000602080830181845280855180835260408601915060408160051b870101925083870160005b828110156120bd57603f198886030184526120ab858351611f82565b9450928501929085019060010161208f565b5092979650505050505050565b6000602082840312156120dc57600080fd5b6120e582611e16565b9392505050565b6000602082840312156120fe57600080fd5b5035919050565b6020815260006120e56020830184611f82565b8b81526001600160a01b038b166020820152610160604082018190526000906121438382018d611f3c565b90508281036060840152612157818c611f3c565b90508960808401528860a084015282810360c08401526121778189611f3c565b905082810360e084015261218b8188611f3c565b90508281036101008401526121a08187611f3c565b941515610120840152505061014001529998505050505050505050565b6000806000606084860312156121d257600080fd5b83359250602084013567ffffffffffffffff808211156121f157600080fd5b6121fd87838801611e72565b9350604086013591508082111561221357600080fd5b5061222086828701611e72565b9150509250925092565b600080600080600080600060e0888a03121561224557600080fd5b873567ffffffffffffffff8082111561225d57600080fd5b6122698b838c01611e72565b985060208a013591508082111561227f57600080fd5b61228b8b838c01611e72565b975060408a0135965060608a0135955060808a01359150808211156122af57600080fd5b6122bb8b838c01611e72565b945060a08a01359150808211156122d157600080fd5b6122dd8b838c01611e72565b935060c08a01359150808211156122f357600080fd5b506123008a828b01611e72565b91505092959891949750929550565b634e487b7160e01b600052603260045260246000fd5b600181811c9082168061233957607f821691505b60208210810361100857634e487b7160e01b600052602260045260246000fd5b600080835461236781612325565b6001828116801561237f5760018114612394576123c3565b60ff19841687528215158302870194506123c3565b8760005260208060002060005b858110156123ba5781548a8201529084019082016123a1565b50505082870194505b50929695505050505050565b6000600182016123ef57634e487b7160e01b600052601160045260246000fd5b5060010190565b602080825260129082015271125b9d985b1a59081a5b9d9bda58d948125160721b604082015260600190565b602080825260129082015271496e766f696365206e6f742061637469766560701b604082015260600190565b601f82111561249857600081815260208120601f850160051c810160208610156124755750805b601f850160051c820191505b8181101561249457828155600101612481565b5050505b505050565b815167ffffffffffffffff8111156124b7576124b7611e5c565b6124cb816124c58454612325565b8461244e565b602080601f83116001811461250057600084156124e85750858301515b600019600386901b1c1916600185901b178555612494565b600085815260208120601f198616915b8281101561252f57888601518255948401946001909101908401612510565b508582101561254d5787850151600019600388901b60f8161c191681555b5050505050600190811b01905550565b6080815260006125706080830187611f3c565b82810360208401526125828187611f3c565b60408401959095525050606001529291505056fea2646970667358221220ccf9e02057e1f934a95b45fb20c7e1388a9a6853e7cb544fa7a479ea3437d7fa64736f6c63430008130033",
  "linkReferences": {},
  "deployedLinkReferences": {}
}